:020000040000FA
:0600000000EF26F01200E3
:0A0006000100704C000060000000D3
:040010001C000000D0
:0C00140000000000380001F00019E000BE
:1000200030C000F0C0007060003060003860001820
:1000300070001870000C70000E7000077800073810
:100040000003F80003F80003F00003F00007F000DD
:1000500007F0000FF0000FF0000FF0000FE0000FAE
:10006000E0000FC00007E00007E00007E00007E045
:100070000007F00007F0000FF000FFF000F3F000C1
:100080007FF0003FF0003FF8003FF8003FF8003FEE
:10009000F0003FF0001FE00007E00001C00000009A
:1000A0000000000010E00073C000C38000C18000A9
:1000B000C18000C0C00060E00030700038700038BF
:1000C00070001C78000E3C000E3C000E3C000E78C8
:1000D000000FF8000FF0001FF0001FF0001FE000FD
:1000E0001FC0003F80003F80003F80001F80000F46
:1000F000800007C00007C00037F0003FF0003FE07D
:10010000003FE0001FE0001FE0001FE0007FE00074
:100110007FE0003FF8007FF8007FF0003FF0000F25
:10012000E00001E00000000000000000000000000E
:1001300000000000B3F000F38000C18000C1800027
:10014000C1800060C00070E00038F0003870001E10
:1001500070000E30000678000778000FF0000FF0F6
:10016000001FF0001FE0001FC0001F80003F800044
:100170003F80003F80003F80001F80000F80000F05
:1001800080000F80000FC0001FC0001FC0001FF0C4
:10019000000FF8000FF8001FF0001FF0000FE00044
:1001A0003FF0003FF0001FF00001F00001F0000000
:1001B000000000000000000000000000000000003F
:1001C0000000000033F00073C000C38000C1800055
:1001D000C18000C1800061800071C00039C000385A
:1001E000E0003CE0000EF0000EF00007F00007F029
:1001F0000007E00007E0000FC0000FC0000FC000C4
:100200000F80001F80001F80001F80001FC0000F94
:10021000C0000FC0000FC0000FC0000FC0000FD8FB
:10022000000FFC003FFC007FF8003FF8001FF000CB
:100230000FF00007F00003F00001F00001F00001F2
:10024000F00001F00000E0000000000000000000ED
:100250000000000000700008E00031C000338000A2
:100260007380007180003100003B00003B00001BE8
:1002700000001F00000F80000F8000078000078033
:100280000007800007800003800007800007C0008F
:1002900007C0000FE0000FE0000FE0000FE0000FCC
:1002A000E0000FE0000FF00007F00007F00007F09B
:1002B0000007F00007F00007F00007F00007F0006B
:1002C00007FF00EFFF00FFFF00FFFF00FFFC0073D0
:1002D000F8003BF0001FF0000BF00003F00001C03D
:1002E000000000000000000380000700000600007E
:1002F0000E00000E00001C00000C00000E00000E9E
:1003000000000E00000F00000F8000078000078033
:100310000007C00007C00007E00007E00007E0009A
:1003200007F0000FF0000FF0001FF0001FF0001F9B
:10033000F0000FF0000FF0000FF00007F00007F0E2
:100340000007F00003F00003F80003F80003F800D2
:1003500007F80007F80007F0001FF000FFFE00FF9D
:10036000FF00C7FF80CFFF803FFF800FF80007F03E
:100370000003E00000000018000038600038E000D2
:1003800038C00039800039800010800018C0001883
:10039000C00018E00018E00018E0001C70000C70AD
:1003A000000C70000E70000E70000E70000E7000D9
:1003B0000E78000E78001FFC001FF8001FF8001FC9
:1003C000F8000FF8000FF8000FF80007F80007F822
:1003D0000003F80003F80003F80003FC0003FC002E
:1003E00003FC0007FC000FF8003FF800FDFC00FFD5
:1003F000FF00FFFE00FFFF001FFF001FFF0007FFC1
:100400008000C000600400600C00600C00200C0044
:10041000200800200800201800301800301800388C
:1004200038003838003838001838001C78000C784C
:10043000000C78000E78000E78000E78000E780020
:100440000F7C001FFC001FF8001FF8000FF8000FC2
:10045000F8000FF80007F80007F80003F80003F8A9
:100460000003FC0003FC0003FC0003FC0003FC0091
:100470000FFC003FFC007DFC00F1FC00FFFE00FFD4
:10048000FE003FFF001FFF000FFF0000EF00000114
:100490000000000020070070060038060018060063
:1004A000180400180C00180C00180C00181C001878
:1004B00038001838001C70000C78000E78000E7898
:1004C000000E78000E7C000FFC001FFC000FFC00EB
:1004D0000FFC000FFC0007F80007F80007F8000702
:1004E000F80003F80003F80001F80003FC0003FC27
:1004F0000003FC0003FC0007FC001FFC003FFC00A5
:1005000079FC00FFFC007FFE003FFF003FFF00077B
:10051000FF0001FF80001F0000000000000000003D
:1005200000000000400600780600180400180400CF
:10053000180C00180C00181C001838001838001887
:1005400070001C70001C70000E70000E70000E78A1
:10055000000F78000FFC000FFC000FFC0007FC00F0
:1005600007FC0007FC0007FC0003FC0003FC000183
:10057000FC0001FC0001FC0001FC0001FC0001FC8E
:100580000001FC0007FC001FFC003FFC00FFFC001A
:10059000FFFE003FFE0007FF0003FF0003EF8001A6
:1005A0008380000000000000000000000000000048
:1005B0000000000040060060060038060018020037
:1005C000180200180400180400180C001C0C001C71
:1005D0000C000C1C000C1C000E38000E3C000E3CE5
:1005E00000063C00073C00073C0007FC0007FE003B
:1005F00007FE0007FE0003FE0003FE0003FE0001ED
:10060000FE0001FE0001FE0000FC0000FC0000FCFA
:100610000001FC0001FC0001FC0003FC001FFE00C7
:100620003FFE007FFE00FFFF00FFFF0003FF800191
:10063000FF8001E7C000C1C0000000000000000012
:100640000000000000030060030020010030018072
:100650003801801800801801801801800801800C82
:1006600003800C03000E03000603000607000707C3
:1006700000070700038700038700038700038F003C
:1006800003EF8003FF8003FF8001FF0001FF0001F3
:10069000FF0001FF0001FF0000FF0000FF0000FF5E
:1006A0000000FE0000FE0000FE0001FE0001FE0052
:1006B00003FE0007FE000FFE003FFF0039FF807FB2
:1006C000FBC07FFFC001FFE000F3E000F0E00000AE
:1006D000000000000000003000303800301800300A
:1006E0001800300800200800200C0060040060069C
:1006F00000E00600E00700C00700C00301C003815E
:10070000C00381C00183C001C3C001C3C001C3C015
:1007100001E3C001FFC001FFC001FFC000FFC00036
:10072000FFC000FF8000FF8000FF80007F80007F0F
:1007300000007F00007F0000FF0000FF0000FF00BE
:1007400001FE0003FE0007FF000FFF001DFF8039C0
:10075000FFC07FFEE07FFFF001FDF000FC50007065
:100760000000000001800601800601800401800471
:1007700000800400800C00C01800C01800E03800A1
:10078000E03800E0380070700070F00070E0007039
:10079000E00070E00071E00071E0007DE000FFE04B
:1007A00000FFE000FFC0007FC0007FC0007FC000EE
:1007B0007FC0007FC0003FC0003F80003F80003FFF
:1007C00080003F80007F80007F8000FF8003FF80EB
:1007D00007FF800FFFC01DFFC03DFFE03FFFF80196
:1007E000FFF801FFFC00FF3C007E0000000000005D
:1007F0000000000001800600C00600400400400C1C
:1008000000401C006018007018007038007038003C
:1008100030700038700038F00038E00038E0003800
:10082000E00038E0007FF0007FE0007FE0007FE044
:10083000007FC0007FC0007FC0003FC0003FC000FD
:100840003FC0001FC0001FC0001FC0003FC0003FCE
:10085000C0007FC0007FC001FFC003FFC007FFE0F2
:1008600007FFF007FEF801FEBC00FFFE00FFFE00E0
:100870007F80000000000000000000000000000079
:100880000000000001800601800600C00400C00CCA
:1008900000401800401800603800703800703800C0
:1008A00070700070700030F00038E00038E0003800
:1008B000E00038E0007DE0007DE0007FE0007FE0C8
:1008C000007FE0007FE0003FE0003FE0003FC0002D
:1008D0003FC0001FC0001FC0001FC0001FC0001F7E
:1008E000C0003FC0003FC0007FC000FFC001FFFE4E
:1008F00003FFFF03BFE701BF0E01BF3C019FF000F4
:100900001FE0000E4000000000000000000000009A
:1009100000000000018006018006008006008004BF
:1009200000800400C00400C00C00E01C00E01C00BB
:10093000601C006018007038007038007038003893
:10094000700038700038700038700038F0007CF0AB
:10095000007FF0007FF0007FF0007FF0003FE000BC
:100960003FE0003FE0003FE0001FC0001FC0001F4D
:10097000C0001FC0001FC0003FC2003FCE007FFE6E
:10098000007FFE007FF600FFE600FFC6019F8601A4
:100990009F8601BF8601BF0001CF00018200018058
:1009A000000180000100040380060180040180042E
:1009B00000800C00C00400C00C00E00C00601C00B3
:1009C000601C0070180070380070380070380038F3
:1009D00038003878003870003C70003C78003C7873
:1009E000003CF8003CF8003FF8003FF8003FF00002
:1009F0003FF0001FF0001FF0003FE0001FE0001F6D
:100A0000C0001FC0001FDF003FFF003FF8003FF0A5
:100A1000007FE0007FE0007FC0007FC0007FC0005B
:100A2000FFC000DFC000DFC000DF8000CF8000CF4C
:100A30000000C0000000000180180180180080182C
:100A400000C018004018004018006018006038000E
:100A5000703800703800703800703800383800384E
:100A600070003C70001C70001C70001C70001C703A
:100A7000001E78001FF8001FFC001FF8001FF80080
:100A80001FF8001FF8001FFC001FFC001FF8001FCC
:100A9000F8003FF0003FF0003FE0003FE0007FE063
:100AA000007FC0007FC0007FE0007FE0007FE000AB
:100AB0007FE0007FE0007FE0007FC0006FC0006F3C
:100AC00000006C0001806001806000C02000C03028
:100AD0000040300040300060300070300070300066
:100AE0007070003070003870001C70001C70001CAA
:100AF00070001C70001C70001E70001E78001F78B3
:100B0000000FFC000FF8000FF8000FF8000FF800BE
:100B10000FF8001FF0001FF0001FE0003FC0003F73
:100B2000C0003FC0003FC0007FC0007FC0007FE02A
:100B3000007FE0007FE0007FE0007FE000FFE0005A
:100B4000FFE000FFC000CFE0004F800067000065BD
:100B50000000600001806000C06000404000404034
:100B60000060400070400030400038E00038E00095
:100B70001CE0001CE0001CE0000CE0000EE0000E99
:100B8000F0000FF0000FF8000FFC000FF8000FF856
:100B9000000FF8000FF8000FF8000FF8001FF0002A
:100BA0001FF0001FC0003FC0003FC0003FC0003F1B
:100BB000C0007FC0007FC0007FE0007FE0007FE0DA
:100BC000007FE0007FE0007FE0007FE0006FC0007A
:100BD0006FC0006700006600006300007300003112
:100BE0000000300001C06000C06000604000604054
:100BF0000030400030400030400038E00038E00075
:100C00001CE0001CE0000CC0000EE0000EE0000E36
:100C1000E0000EF0001FF8000FF8000FF8000FF8CA
:100C2000000FF8000FF8000FF8000FF8000FF000A9
:100C30000FF0001FE0001FC0003FC0003FC0003F9A
:100C4000C0003FC0007FC0007FC0007FC0007FC0E9
:100C5000007FC0007F80007F00007F00006F0000E9
:100C60006F00006200006000006000006000006033
:100C70000000600001806001C06000C06000406052
:100C80000040200040200060600070600070600044
:100C90003070003070003860001C60001CE0001CE8
:100CA000E0001CE0001CE0001CF0001EF0001FF83B
:100CB000001FF8001FF8001FF8001FF8001FF800C1
:100CC0001FF0001FF0001FF6001FE6001FCE001FE0
:100CD000DE001FFC003FF8003FF8003FF0007FE01F
:100CE00000FFE000FFC000FF8000BF00001F000009
:100CF0001F00001F00001E00000C0000000000008C
:100D00000000000000C04000C06000C06000C020C3
:100D100000C02000402000402000602000606000F3
:100D200070600070700070600038600038E000187B
:100D3000E0001CE0001CE0001CE0001CE0001CE0E7
:100D4000003CF0003FF0003FF0003FF0023FF002B7
:100D50003FF0031FF0031FF0011FF0019FE0019F10
:100D6000E000CFC000FFC0007FC0007FC0007FC098
:100D7000007FEF007FFF007FFF003FF0007F8000DB
:100D80007F00007F00007F00003F00001E00000089
:100D90000000000000600000E06000C06000C06073
:100DA0000040400040400060400060400060600043
:100DB00070E00070E00070E00038C00038C000391A
:100DC000C0001DC0001DC0003DC0003DC0003DE092
:100DD000003DF0037FF0017FE0017FE000BFE00015
:100DE000BFE000FFE000DFE000DFE0007FE0006F39
:100DF000E0007FE0007FE0003FE0003FE0003FF0E8
:100E0000003FE0003FE0003FF0003FF0007FFC00CB
:100E10007F9E007F87007F87003F01001F01000049
:100E200001000001006070006060006040006040F0
:100E30000060C00070C00070C00071C00031C00010
:100E400039C00039C0001D80001F80001F80003F96
:100E5000C0003FC0003FC0007FC0007FC0007FC017
:100E6000007FC0007FC000FFC000FFC0007FC00047
:100E70007FC0007FE0007FE0003FE0003FE0003FF8
:100E8000F0003FF0003FF0003FF0003FF0003FF087
:100E9000003FF0003FF0007FF0007FF0007FF000A7
:100EA0003FF0003FB0000C300009F00007E0000701
:100EB000C00003000060700060600060C00060C09F
:100EC0000060C00031C00031C00031C00039800076
:100ED0001F80001F80001F80001F80001F80003FB8
:100EE000C0003FC0007FC0007FC0007FC0007FC047
:100EF00000FFC000FFC0007FC0007FC0007FC000B7
:100F00006FC0007FE0003FE0003FE0003FE0003FB7
:100F1000E0003FF0003FF0003FF0001FF0001FF046
:100F2000003FF0003FF0001FF0001FF0001F7000B6
:100F30001FF0001FF0000000000000000000000093
:100F4000000000000060700060600060C00060C0D1
:100F50000060C00060C00071C00071C00071C000BE
:100F600071C0003180003B80003B80003B80003B33
:100F7000C0003BC0003BC0007FC0027FC0067FC0F6
:100F8000027FC0027FC0017FC001FFC001BFC0015E
:100F9000FFC000DFC000DFC0006FC0007FE0007F47
:100FA000E0003FE0003FE0003FE0003FF0001FF0C6
:100FB000000FF8000FF8000FD8000FDC000F8C00B6
:100FC0000F0C00070C00003C0000780003F000014B
:100FD000C00000C000606000606000404000404011
:100FE0000040400040400060400060400060C000A1
:100FF00070E00070E00070C00070C00031C00039C7
:10100000C00039C00039C00039C00039C00039E023
:10101000007FE0007FE0007FE0007FE0003FC00055
:101020003FC0003FE0003FC0003FC0021FC0021FA2
:10103000C0019FC0019FC001DFC000FFC0007FC092
:10104000007FE0007FF8000FFC000FFE000FC700DC
:101050000FC1000FC1000F810007830003030000D0
:101060000300000300000000C02000C06000C0605A
:1010700000402000402000602000602000606000F0
:1010800070600070600070600070600030E00038D8
:10109000E00038E00038E00038E0003CE0003CE0F0
:1010A000003CE0003DE0003FF0003FF0003FF0007A
:1010B0003FF0003FE0003FE0003FE0001FC0001FA6
:1010C000C0001FC0003F80003FC0003F80007F8FF6
:1010D000007FFF007FFD00FFF000FFC0009FC00009
:1010E0009FC0008FC0008FC0008FC000878000822B
:1010F0000000800000000000800000C06000C060B0
:1011000000406000406000602000602000606000DF
:1011100070600070600030600038600038E0001CD3
:10112000E0001CE0001CE0001CE0001CE0001CE0F3
:10113000001EF0001FF0001FF8001FF0001FF0005D
:101140001FF0001FF0001FF0001FE0001FCC001F69
:10115000DE003FBC003FB8007FF0007F70007FE002
:10116000007FC0007FC0007FC000FFC000FFC00044
:10117000FFC000FFC000DFC000CFC000CE0000CC29
:101180000000400000000000C0C000C0C00040409F
:1011900000404000604000604000304000304000AF
:1011A00030E00038E0001CE0001CC0000CC0000C67
:1011B000C0000EE0000EE0000EE0001EF0001FF088
:1011C000001FF8001FF8001FF8001FF8001FF000B4
:1011D0001FF0001FE0001FE0001FC0003FC0003FE5
:1011E00080007FC0007FC0007FC0007FC0007FC044
:1011F000007F8000FF8000FFC000FFC000FFC00034
:10120000FF8000FF8000FF8000FC00007800007875
:101210000000380000400000E0C00060C00060C076
:101220000020C00030C00030C00038C0001CC0002A
:101230000CC0000DC0000FC0000FC0000FC0000F99
:10124000C0000FC0001FE0001FF8001FF0001FF0DB
:10125000001FF0001FF0001FF0001FF0001FE00053
:101260001FC0003F80003F80003F80007F80007FE4
:1012700080007F80007FC000FF8000FF8000FF8033
:1012800000FF8001FFC001FF8001FF0001FF00009F
:10129000FF0000000000000000000000000000004F
:1012A0000000000000400000E0C00060C00060C01E
:1012B0000020C00030C00030C00038C00018C0009E
:1012C0001CC0000CC0000FC0000FC0000FC0000FFA
:1012D000C0000EC0001FE0001FF0001FF0001FF054
:1012E000001FF0001FF0001FF0001FF0001FF000B3
:1012F0001FF0001FE0003FE0003FC0007FC0007F04
:10130000C0007FC000FFC000FF8001FF8001FF0020
:1013100001BF00033F00033E00023E00063C000305
:101320001800038000018000018000000000000020
:10133000000000000040000060400040C00040C0CD
:101340000040C00040C00060C00060C00070C0002D
:1013500070C00030C00038C00038C0001CC0001D84
:10136000C0001DC0001DC0001DC0001DE0003FF0FA
:10137000003FF0003FF0003FF0003FE0001FE000C2
:101380001FE0001FE0001FC0001FC0001FC6001F9D
:101390008E003F9E003FBC007FF8007FF000FFE022
:1013A00003FFC0077F8006FF000CFF0019FC001937
:1013B000F80018F0001860003800003800007800CD
:1013C0000078000000000000000000700000606075
:1013D00000C04000C0C000C0C00040C00040C0000D
:1013E00060C00060C00060C00070C00070C00071CC
:1013F000C00031C00039C00039C00039C00039C058
:101400000079C0007BC0007FE0007FC0007FC0008B
:101410007FC0007FC0003FC0003FC0003FC0003F12
:10142000C0001FC0001FC0001FC0003FC0003FC061
:101430001FFFC03FFFC031FFFE01FFFE03FE06039A
:10144000FC0001F80000F000007000000000000047
:101450000000000000000000000000E00000C0C02C
:1014600000C0C000C0C000C08000C08000C08000BC
:10147000C08000E18000E180006180007180007127
:10148000800073800073800073800073800073801D
:101490000073800077C000FFC000FF8000FF800065
:1014A000FF80007F80007F80007F80007F80083F7A
:1014B000800E1F800F3F80079FC0039FC001FFC0A9
:1014C00000FFC000FFC001FFC001FFC003FFE00339
:1014D000FE6001FC3001FC3800781800001C0000A0
:1014E0000C00000C00000000C1000181000183001D
:1014F00001830000830000830000830000C300001C
:10150000C30000E30000630000770000770000776D
:101510000000770000770000F70000FF0000FF00E8
:1015200001FF0001FF0001FF0000FF0000FF0000BD
:10153000FF0000FF0000FF0000FF0000FF0000FFB1
:101540000000FF8000FF8000FF8000FF80007F80A0
:10155000007F80007FC000FFC000FFC000FFC00010
:101560007FC001FFC000FFC0003F80000F00000CE3
:101570000000000000000000C100018300018300A2
:1015800000820000820000C60000E60000E60000C5
:101590007600007E00007C00007C00007E00007E63
:1015A00000007E0000FF0001FF0001FF0001FF00BE
:1015B00001FF0001FF0001FF0001FF0001FF00012A
:1015C000FF0001FF0000FF0000FF0000FF0000FF20
:1015D0000000FF0000FF0000FF0000FF80007F8090
:1015E000007F80007FC0007FC0007FC0003FC00040
:1015F0003F80003C000000000000000000000000F0
:101600000000000000000000C30001830001820010
:1016100000820000860000860000C60000C60000B0
:10162000EE0000EE00006C00007C00007C00007EFC
:101630000000FE0000EE0001FF0011FF0019FF0096
:1016400019FF0009FF0009FF000DFF0006FF00065B
:10165000FE00067E00077E00037E0003FE0001FF01
:101660000001FF0001FF0001FF0001FF00007F807B
:10167000007FC0007EE0007E60003E70003FF00012
:101680001EE0000FC0000F800003000000000000FB
:101690000000000000000000C10001830001830081
:1016A00001830001820001820001820001820001A9
:1016B000870001C70001C70000C70000C60000E6A0
:1016C0000000EE0000EE0000EE0000EF0001EF0071
:1016D00001FF0001FF0001FF0001FF0001FF000109
:1016E000FF0001FF0020FE0020FE0030FE0038FC5D
:1016F000001CFE000CFE0007FE0007FE0003FE00BB
:1017000003FF8001FFF000FFF8007FBC007F8C002A
:101710007F0C003F0C003C0C00000C00000C000093
:101720001E00001C0000000000000180000183007A
:101730000183000103000102000102000102000117
:10174000820001830001870001870001C70001C7F3
:101750000000C60000C60000CE0000CE0000EF0072
:1017600000EF0001EF0001FF8001FF0001FF000119
:10177000FF0000FF0001FF0001FF0000FE0000FE6F
:101780000000FC0001FC0001FC0001FC0001FC0069
:1017900001FCFC0FFFFE1FFFC01FFF0010FF001029
:1017A000FF0000FE00007E00007C000078000000CA
:1017B0000000000000000000000001800001800027
:1017C000018600010600010400010400010400017B
:1017D000840001860001860001860001C60000C663
:1017E0000000C60000CE0000EE0000EE0000EE009B
:1017F00000EF0001EF0001FF8001FF8000FF00000B
:10180000FF0000FF0000FF0000FF0000FE0000FEE0
:101810000001FC3001FC7001FCE001FDC003FB8015
:1018200003FF0003FF0003FE0007FC0007FE000D9E
:10183000FE000DFC000DFC0008FC000CF8000C0084
:10184000000C000000000000000001800001880082
:10185000018C00010C00010C00010C00018C000146
:101860008C00018C0001CC0000CC0000EC0000ECEE
:101870000000EC0000EC0000EC0000FE0000FE00A8
:1018800000FF0000FF8001FF8000FF8000FF0000DC
:10189000FF0000FF0000FF0001FF0001FE0001FE4D
:1018A0000003FE0003FE0003FC0003FC0003FC0039
:1018B00003FC0007FC0007FC0007FC0007FC000716
:1018C000F80007F00007F00006F000060000060030
:1018D00000020000000000010000019800019800D3
:1018E00001880000880000880000880000CC00000B
:1018F000DC0000FC0000F800007800007C00007CA8
:101900000000FC0000FC0000FE0000FF0000FF00E3
:1019100000FF0000FF0000FF0000FF0001FE0001CB
:10192000FE0001FC0001FC0001FC0003F80003F8CC
:101930000003FC0003FC0003FC0007FC0007F800A8
:1019400007FC0007FC0007F80007F00007F000079D
:10195000F00007400003800001800001800000804B
:101960000000000000000001000001980001980044
:1019700000980000900000900000D80000D80000FF
:10198000F80000F80000F00000780000F80000FC0B
:101990000000FC0001FE0001FE0001FF0001FF004D
:1019A00001FF0001FF0001FE0001FE0001FC00013B
:1019B000FC0001F80001F80003F80003FC0003FC40
:1019C0000003FC0007FC0007FC0007F8000FF8000C
:1019D0000FF8000DF00009F00009E0000CC0000E47
:1019E0000000038000000000000000000000000074
:1019F00000000000000000010000019800019800B4
:101A00000198000108000108000188000188000118
:101A10009C0001DC0000DC0000DC0000FC0000FC9D
:101A20000000FC0000DC0001DC0001FE0001FE0003
:101A300001FE0001FF0001FE0001FE0001FE0001A9
:101A4000FE0001FF8001FF8001FF8001FF8001FF98
:101A50000003FF0003FE0003FE0007FC000FFC0074
:101A60000FFC003BE0003BE00033E00063E000637C
:101A7000E000618000600000700000300000300075
:101A800000700000000000000000018000018C00D8
:101A9000030C00030C000208000208000208000307
:101AA0000C00030C00031C00031C00039C00019CA1
:101AB00000019C00019C00019C00019C0001DC00D5
:101AC00003DC0003DE0003FE0003FE0003FE000350
:101AD000FE0003FE0003FE0003FC0001FC0001FC0D
:101AE0000001FC0001FC0001FC2001FCF003FFF8F8
:101AF00007FFF03FFF007FFE00E7F00087E00007F0
:101B0000E00007E00007E00001C000000000000066
:101B10000000000000000000000001000003800041
:101B2000030400060C00060800061800061800064C
:101B30001800061800061800061C00071C00031CED
:101B400000031C00039C00039C00039C00039C00FA
:101B5000039C0003BC0007BE0007FC0007FC000755
:101B6000FC0007FC0007FC0003FC0003FC0003FC76
:101B70000001FC0001FC0001FC0001FC00C1FC00B4
:101B8000FBFC007FFC000FFE0007FF8007F7F0075B
:101B9000F0F807F03807F01C03F00801E00400003B
:101BA000060000060000000000000E10000C1000EF
:101BB0000C10000C30000C30000410000410000465
:101BC00030000630000638000638000738000338B9
:101BD0000003380003380003380007380007780096
:101BE000077C000FFC000FFC000FF8000FF8000747
:101BF000F80007F80067FC0073FC0039FC0039FCB2
:101C0000001DFC000FFC0007FC0007FC0007FC00A7
:101C100003FC0003FE0003FE0003FE0007FE0007B6
:101C2000FE0007FF0007FF0001F300004700000768
:101C300000000F000010000E3800183000183000AF
:101C40001830000830000830000C70000C70000ED6
:101C500070000670000770000370000370000770CA
:101C6000000770000770000778000FF8000FF800F9
:101C70000FF8000FF8000FF8000FF8000FF800073A
:101C8000F80007FC0007FC0007FC0007FC0003FC51
:101C90000003FC0003FC0003FC0003FC0003FC0049
:101CA00003FC0003FC0007FC0007FC0007FC000F1E
:101CB000FC0007FC0003F80000000000000000002A
:101CC000000000000010000E3800183000186000FE
:101CD0000860000870000C70000E70000E700006A6
:101CE000700007700003700003700003700007F0BD
:101CF0000007F00007F8000FF8000FF8000FF800D9
:101D00000FF8000FF80007F80007F80007F80007C1
:101D1000F80003FC0003FC0003FC0003FC0007FCCC
:101D20000007FC0007FC0003FC0003FC0001FC00B2
:101D300007FC0003FC0003FC0007FC0000FC0000A3
:101D40006C00000000000000000000000000000027
:101D5000000000000010000E1800183000183000BD
:101D60000830000830000830000C30000C30000E45
:101D70003000063000073000033800033800033815
:101D80000003380007B80007FC0007FC000FFC0048
:101D90000FFC000FFC000FFC0007FC0007FC000715
:101DA000FC0007FC0007FC0007FC0007FC0007FC28
:101DB0000007FC0007FC0007FC0007FC0003FC0018
:101DC00003FC0001FE0001F70001F30001FF8000A9
:101DD000FF80007380000000000000000000000091
:101DE000000000000000000C18000C18000808009B
:101DF000080C00080C00080C000C0C000C0C000671
:101E00000C00060C00060C00060C00030C00030C72
:101E100000038C00038C00038C00039C00039E00D5
:101E200003DE0003FF0023FF0033FF0033FE001139
:101E3000FE0019FE0019FE0009FC000DFC000DFC5F
:101E4000000DFC0005FC0007FC0007FC0007FC007F
:101E500007FC0007FE0003FF0001FF8001F9C0013D
:101E6000F8E000FBE000FFC000FC000038000000CC
:101E7000000000000000000000001803001803002C
:101E80000803000803000C03000403000403000619
:101E90000300060300070300030300038300038716
:101EA0000001870001C70001C70001C70001C7008A
:101EB00001E70001EF0001FFC001FFC001FF800149
:101EC000FF80C0FF00C1FF0061FF0020FE0030FE68
:101ED0000039FC0019FC0009FC000DFC000FFC009F
:101EE0000FFC0007FF0007FFC003FFE001FC7001CB
:101EF000FCF001FFC000FF0000FC000078000000C3
:101F0000000000000000000000001800C00800C031
:101F10000C00C00400C00400C00600C00600C003DE
:101F200000C00301C00381C00181C001C18001C1A3
:101F30008000E38000E38000E38000F38000F38012
:101F400000FBC000FFC000FFC0007FC0007FC000DA
:101F50007FC000FF8000FF8000FF0080FF0080FE48
:101F60000061FC0071FC0039FC0019FC000FFF004F
:101F70000FFFE007FFF803FCF003FCF001FFC001D6
:101F8000FF0001FE0001FC0000FC0000300000002A
:101F9000000000000400000C007004003006003057
:101FA00006003002002003002003806001806001F1
:101FB000C0E001C0E000E0C00070C00071C000716E
:101FC000C00071C00079C00079C0007DC0007FE012
:101FD000007FE0007FE0007FC0007FC0007FC00086
:101FE0007FC0007F8000FF0000FF0001FE0001FCB9
:101FF00000F1FC00F9FFF81FFFF80FFFF807FC7075
:1020000003FC6001FEC001FEC001FFC001FC000036
:10201000FC0001F80000700000000000000000005B
:10202000000000000400000E007006006006006062
:1020300002004001804001804001C0C000E0C000BB
:1020400070C00071C00071C00039C00039C00039D3
:10205000C0003DC0003FC0003FE0003FE0003FE067
:10206000003FE0003FE0007FC0007FC0007F8000B5
:102070007F0000FE0000FE0000FE3871FDF8FDFF4D
:10208000F80FFF9807FF1003FE3003FC3001FC300F
:1020900001FC3001FC3000FC0001F80001F0000000
:1020A00060000000000000000000000000000000D0
:1020B000000000000400000E007006003006003032
:1020C0000200200300600100400180400180E00127
:1020D000C0E000E0C00071C00071C00071C00071BC
:1020E000C00071C00079C0007BC0007FE0007FE0CD
:1020F000007FC0007FC0007FC0007FC0007F8000E5
:102100007F80007F00C0FE00F0FE3838FCFC1DFD23
:10211000FE0DFFC607FF8207FF0003FF0001FC0062
:1021200000FC0001F80000F80000F8000078000052
:10213000700000000000000000000000000000002F
:10214000000000000400000C00600C00600400604F
:102150000400600600400600400200400300C00387
:1021600000C00300C00380C00181C001C18001C361
:102170008001E38000C38000C38001E78001F78015
:1021800001FFC001FF8001FF80C1FF84C0FF064046
:10219000FF0E20FF0C20FF1830FF3838FE3018FEED
:1021A000700CFEE00CFCC007FDC007FF8007FF00BD
:1021B00003FF0003FF0001FE0000FC0000F8000028
:1021C000F80000F80000F0000070000000000000BF
:1021D000000000000400000C00000C00600C004037
:1021E0000800400800C00800C00C00C00C008006B9
:1021F0000180060180060380060300070300030731
:1022000000030700038700038F00038F00038F0084
:10221000038F0007FF0007FF001BFF601BFE601B12
:10222000FE600BFE400BFE4009FEC00DFEC00DFC23
:10223000C006FDC006FD8006FF8003FD8003FF8011
:1022400003FF8003FF0003FF0001FE0001FC00010B
:10225000FC0001FC0001F80001F80001F0000000A2
:10226000000000003000003803003003003003009D
:102270003003003002001002001804001804001897
:102280000C00180C001C1C001C1C000C1C000C3C3E
:10229000000E3C000E38000E38000E78000E78005C
:1022A0001E7C001FF8001FF8000FF8000FF8000F49
:1022B000FC0007FC0007FC0007FC0003FE0003FE17
:1022C0000001FE0001FE0001FF0001FF0003FF000E
:1022D00003FF0003FF0001FF0001FF0003FE0003F6
:1022E000FC0007FC0003F80001F80000700000008B
:1022F00000000000300400300E00200C0020080018
:102300002018002010003030003030003830003805
:1023100070003870001870001CF0001CF0001CF0F9
:10232000001CF0001CF0001DF0003FF0003FF0002A
:102330003FF0003FF0003FF0001FF0000FF0000FF3
:10234000F80007F80007FC0003FC0001FC0001FE98
:102350000001FE0001FF0003FF0003FF0003FF0078
:1023600001FF0003FF0003FF0003FC0003FC000368
:10237000F8000078000000000000000000000000ED
:1023800000000000300400300E0030180020100063
:102390003030003030003070003870003870003855
:1023A000E00018E0001CE0001DE0001DE0001DE062
:1023B000003FF0003FE0003FF0003FE0003FE00062
:1023C0003FF0003FF0003FF0001FF0000FF8000763
:1023D000FC0003FC0003FE0003FE0003FE0003FEFE
:1023E0000003FF0003FF0003FF0003FF0001FF00E5
:1023F00001FC0001FC0001F80001F00000500000A9
:1024000000000000000000000000000000000000CC
:1024100000000000300400300E00200C00300800E6
:1024200020180030180030180038380038380038CC
:1024300030001830001C70000C70000C78000C701C
:10244000000C70001EF8001EF8003FF8003FF80076
:102450003FF8001FF8001FF8000FF8000FFC000FF6
:10246000FC0007FC0007FE0007FE0007FE0007FE59
:102470000007FE0007FE0007FE0007FE0001FC004B
:1024800001F80001F00001F00001F00000F0000090
:1024900070000000000000000000000000000000CC
:1024A0000000000030020030060030060030060058
:1024B0003004003004003004003804001804001810
:1024C0000C001C0C000C0C000E0C000E1C00061C5A
:1024D00000061C00061C00071C00073C0007FE004D
:1024E0001FFC003FFC003FFC001FFC001FFC000F16
:1024F000FC001BFC001BFC001BFC0019FC0009FC81
:10250000000BFC000FFC000FFC000FFC0007FE009E
:1025100007FC0003FC0001FC0001FC0001FE0001BF
:10252000FE00007E00003C000000000000000000F3
:1025300000000000300000300100300100300100D8
:102540003001001001001801001801001803000CF0
:1025500003000E03000E0300060300070300030739
:1025600000038700038700038700038F0003CF0069
:1025700003EF0003FF001BFF001BFF001BFF001900
:10258000FE000BFE0019FE0019FC0019FC0019FCEE
:102590000031FC001BFC001BFC000FFC000FFC00CA
:1025A00007FC0003FC0003FF0001FF0001FF8001A6
:1025B000FFC000FFC000FF00000C00000000000092
:1025C000000000001800001800401800C01800C0EB
:1025D0000800C00800C00C00C00600C00601C0070B
:1025E00001C00301C00381C001C18001C38001C3D8
:1025F0008000E38000E38000E38001E78001F78052
:1026000001FF8001FFC001FF8005FF000DFF000DED
:10261000FF000DFF0008FE0008FE0019FC0019FC79
:102620000039FC0019FC000DFC000FFC0007FC0049
:1026300003FC0001FF0001FF0001FF0000FFC001DB
:10264000FFC001FFF0007FF0001C00000000000050
:10265000000000000C00400C00C00C00C00C00C0CA
:102660000400C00600C00300C00380C001C1C00157
:10267000E1C000F1C00071C00071C00071C0007302
:10268000C00073C0007BC000FBC0007FC000FFC063
:1026900000FFC000FF8002FF8002FF8002FF0006F3
:1026A000FF0004FE000CFE0009FE0019FE0018FEEB
:1026B000000FFE000FFE0007FE0001FE00007F007D
:1026C000007F0001FF0000FF80007FC001FF80014C
:1026D000FFE0001FF80007F000000000000000000D
:1026E000000000000C00401800C00C00C00C00806E
:1026F00006008003008003818001E1C000F1C0007A
:1027000071C00031C00039C00039C00039C0007943
:10271000C0007FC0007FC0007FC0007FC0037FC0BB
:10272000037FC0037F80027F80027F0006FF0004DA
:10273000FE000CFE000CFE000EFE0007FE0007FE71
:102740000001FE0001FF00007F0001FF00007F008C
:10275000007F80007F00007F00005F80000FE000AE
:1027600000F0000000000000000000000000000079
:10277000000000000C00401C00E00C00C00C0080B9
:1027800006008003008003018001C1C001E1C00098
:10279000F1C00071C00071C00071C00079C0007943
:1027A000C0007BC0007BC0007FC0037FC0037FC030
:1027B000017FC0027FC002FF80027F80027F000293
:1027C000FF0002FE0002FE0003FE0003FE0003FE07
:1027D0000003FE0001FE0001FE0001FE00007F007C
:1027E000003F00003F00001F00001F00000E00001F
:1027F00000000000000000000000000000000000D9
:10280000000000000C00400800600800C00C00C080
:102810000400800400800600800601800701800318
:10282000018003818001818001C38001C38000E3B6
:102830008000E38000E38000E38001F78003FFC0B5
:1028400003FF8003FF8003FF8002FF8003FF00037C
:10285000FF0003FF0003FE0003FE0003FE0001FE75
:102860000001FE0001FE0001FF0001FF0001FF006A
:1028700001FF00007E00007E00007E00007E000060
:102880007E00007C0000000000000000000000004E
:10289000000000000800000800000800400800C018
:1028A0000800C00800C00C00C00400C0060180067B
:1028B0000180060180060380070380030300038371
:1028C00000038700038700038700038700038F004E
:1028D00003FF0003FF0007FF0007FF0003FF0003E3
:1028E000FF0003FF0003FF0003FF0003FF0001FFE1
:1028F0000001FF0001FF0001FF0001FF0001FF8058
:1029000001FF8001FF0001FF0001FE0001FE000148
:10291000FE0001FE0001FC0000700000000000004D
:10292000000000000800001800001800C00800C0E7
:102930000800800800800801000C01000C03000C56
:1029400003000C03000E0700060700060E00060E2B
:1029500000070E00070C00071C00071C00073E00C4
:1029600007BE000FFC000FFE000FFE000FFE000F61
:10297000FF0007FD0007FD0003FD8003FD8003FE4F
:102980008001FE8001FF8001FF8001FF8001FF8048
:1029900001FF0005FF0003FE001FFE0007FE000709
:1029A000FC003FF8003FF0000FC0000000000000F6
:1029B00000000000000000180180180180080100DC
:1029C0000801000803000803000C06000C0E000CB0
:1029D0000E000E1C00061C00061C00063C00063CF7
:1029E00000063C00063C00077C000FFC000FFE00C8
:1029F0000FFE003FFE0037FE0037FF000FFD000F07
:102A0000FD0007FD8003FD8003FD8001FD8001FFC7
:102A10008001FF8001FF0003FF0003FF0001FE00B3
:102A200007FE0007FE001FFE000FFC000FF8001F4E
:102A3000F00007C000078000040000000000000054
:102A400000000000080000180180080300080300CF
:102A50000802000806000C0C000C0C000C1C000CFA
:102A600038000E38000E70000E78000E78000E78D8
:102A7000000E78000FF8000FFC000FFC000FFE00A6
:102A80002FFE003FFA0017FB000FFB0007FD0003BD
:102A9000FD0001FD0001FF0001FF0003FF0003FF37
:102AA0000003FF0003FF0003FE0007FC0007FC001B
:102AB0000FFC0007F80003F00003F00001800003A2
:102AC0000000000000000000000000000000000006
:102AD0000000000008000018018008010008030041
:102AE0000803000806000806000C0C000C0C000C83
:102AF0001C000C1C000E38000E38000E38000E387A
:102B0000000E78000E7C000F78000FF8000FFC001C
:102B10001FFC001FFC001FFC000FFC0007FE00074D
:102B2000FF0003FF0003FF0003FF0003FF0003FF9C
:102B30000003FF0003FF0003FF0003FF0001F80094
:102B400001F80000F80000F80000F000007000003C
:102B50000000000000000000000000000000000075
:102B6000000000000000001801801801800801002A
:102B70000801000801000801000803000C03000C14
:102B800007000C07000E07000E0E00060E00060CD4
:102B900000060C00071C00071C00071C00073C0077
:102BA00007FC000FFC000FFC000FFC000FFE0007ED
:102BB000FE0007FE0007FE0007FE0007FE0007FEFE
:102BC0000003FE0003FE0003FF0003FF0003FF00FD
:102BD00003FF0001FC0001FC0000F80000F8000009
:102BE000F80000F80000780000000000000000007D
:102BF000000000000000000000003800001800C0C5
:102C00001800801801801801000801000801000C5C
:102C100001000C03000C03000E030006030006076E
:102C200000070700070F00070E00030E00038E00C9
:102C3000038E0007CE0007FF0007FF000BFE000F0A
:102C4000FE0007FE0007FF0007FE0005FE0005FC72
:102C50000007FC0007FC0007FC0003FC0003FE006B
:102C600003FE0003FE0003FE0003FC0001FC000065
:102C7000FC0000FC0000FC00007C0000780000006C
:102C80000000000000000000000018000018000014
:102C90001800401800C01801800801000801000C4D
:102CA00001000C01000603000603000603000703F1
:102CB00000030300038700038700038700018700E8
:102CC00001C70003CF0003FF0007FF8005FF000DD1
:102CD000FF0005FF0005FF0005FF0005FE0005FCE5
:102CE0000005FC0007FC0007FC0007FC0003FC00DB
:102CF00003FC0003FE0003FE0003FE0003FE0001D0
:102D0000FE0000FE00007E00007C0000FC00007061
:102D1000000000000000000400000C00000C000097
:102D20000C00C00C00800403000401000601000632
:102D30000100060100030300030300018300018377
:102D40000001C30001C30001C30001C70001C700A7
:102D500001E70001FF0005FF8007FF0006FF0004F8
:102D6000FF0004FF0006FF0006FF0006FC0006FC53
:102D70000003FC0003FC0003FC0003FC0003FC0058
:102D800003FE0001FF0001FF0001FE0001FE000044
:102D9000FE0000FC0000FC00007C00003800004049
:102DA000000000000000000400000C00800400800F
:102DB00004010006030002030003030003030001F3
:102DC000830001C38000C18000E18000E38000E354
:102DD0008000E38000E78000E70001F70003FF00C8
:102DE00003FF0003FF0002FF0002FF0002FF0002DA
:102DF000FF0002FF0003FC0003FC0003FC0003FCD7
:102E00000003FC0003FC0001FC0001FE0001FF00C8
:102E100000FF0000FE0000FE0000FE0000FE0000BB
:102E20007E000018000010000000000000000000FC
:102E3000000000000000000400000C00800C038073
:102E40000607000202000303000383000183000160
:102E5000E30000E30000738000738000738000775C
:102E60008000770001FF0001FF0001FF0001FF006B
:102E700001FF0001FF0001FF0001FF0001FF000151
:102E8000FF0001FE0000FE0001FE0000FE0000FE4B
:102E90000000FE0000FE0001FE0001FE0001FE0039
:102EA00001FF00007E00007E00001C000008000002
:102EB0000000000000000000000000000000000012
:102EC000000000000000000400000C00800C0380E3
:102ED0000C0700060600060200030300038300013E
:102EE000C30001E30000F300007380007380003B27
:102EF00080003B80003F80007F0000FF8000FF00DB
:102F0000007F00007F00007F00007F00007F000046
:102F10007F00007F00007F00007E00007F00007FB8
:102F200000007E00007E00007E00007E00003E006B
:102F3000003E00003E00003E00001C0000080000B3
:102F40000000000000000000000000000000000081
:102F50000000000000000000000006008006008065
:102F6000060100060300060300020300020300033B
:102F7000030001830001C30001C30000E3000073EC
:102F800000007300007300007B00007F80007F80E2
:102F9000007F80007F80007F80007F00007F000036
:102FA0003F00003F00003F80003F80003F00003FA7
:102FB00000003F00003F00003F00003F00003F00D6
:102FC000003F00001F00001F00001F00001F000046
:102FD0001E00000C000000000000000000000000C7
:102FE00000000000000000000000018000018000DF
:102FF0000380C003018003030003030001030001F9
:10300000830001830001C30000C30000E3000073DC
:1030100000007300003B80003B80003B80003F804D
:10302000003F00003F80003F80003F80003F0000E5
:103030003F00003F00001F80001F80001F80001F16
:1030400080003F80003F80003F80001F80001FC045
:10305000001FC0000FC0000FC0000FC0000FC00055
:103060000F80000F000007000000000000000000BB
:10307000000000000000000000000080000180004F
:10308000018300030200010C00018400018600009E
:10309000C20000E300007300007300007B00003FEB
:1030A00080003F80001F80001F80001F80001F8065
:1030B000003F80003F80003F80003F80003F0000D5
:1030C0003F00001F80001F80001FC0001FC0003F86
:1030D00080003FC0001FC0000FC0000F80000FE045
:1030E000000FE0000FC0000FC0000FC0000FC000B5
:1030F00007C0000100000000000000000000000008
:103100000000000000000000E00001C00003820099
:10311000018600019C0000CC00006C00007C0000D7
:103120007E00003F00001F00000F00000F80000F16
:1031300080000F80001F80001F80001F80001F8004
:10314000003F80003F80001F80001F80001F800024
:103150001F80001F80001FE0001FE0000FC0000F55
:10316000C0000FC0000FC0000FF0000FF0000FF004
:10317000000FF00007F00007E00003C000000000AF
:10318000000000000000000000000000000000003F
:103190000000000000000000E00001C0000182000B
:1031A000019E0000D800006800007C00003E000086
:1031B0001F00000F00000700000780000780000FBD
:1031C00080000F80000F80001FC0003FC0003FC084
:1031D000001F80001F80001F80001F80001F8000D4
:1031E0001FC0001FC0000FF0000FF8000FC0000F3D
:1031F000C00007E00007F80007F80003F00003E054
:103200000001E00001C0000080000000000000009C
:1032100000000000000000000000000000000000AE
:103220000000000000000000600000600000E200FC
:1032300000C60000DC00006C00006C00003C0000D8
:103240003E00001F00001F00000F00000F8000075D
:10325000800007C0000FC0000FC0000FC0000FC0EB
:10326000003FC0007FC0003FC0003FC0003FC00023
:103270003FC00017C00017C0001FC0001FE0001FA4
:10328000F0000FF8000FF80007E00007E00003E08F
:103290000003E00003E00003C00001C00000800064
:1032A000000000000000000000000000000000001E
:1032B000000000000000000000000000000000000E
:1032C000001A000032000036000036000012000034
:1032D0001B00001B00000F00000F00000F80000FFC
:1032E000800007C00007C00007C00007C00007C07B
:1032F0000007E0000FF0004FF0004FF0006FF0000B
:103300002FF00027F00037F00037F00013F0001323
:10331000F0001FF0001FF0001FF8000FF8000FF082
:10332000000FF00007E00003E00003C00003C0004E
:1033300003C00003C0000000000000000000000007
:10334000000000000000000000000000000000007D
:10335000000000000F000007000007000007000049
:1033600004800004800006C00006C00007C00007FB
:10337000C00007C00003E00003E00003E00003F02A
:103380000007700007700007F8000FF8004FF80002
:1033900047F80027F80037F80017F80013F0001B73
:1033A000F0001BF0000BF8000FFC000FFC000FF802
:1033B000000FF8000FF8000FF80007E00007E0002A
:1033C00007E00007C00007C0000180000000000007
:1033D00000000000000000000000000000000000ED
:1033E0000001800001B00000B00000A00000A000BB
:1033F00001A00001B00001B00001B00001B0000167
:10340000B00001B00001F00001F00003F00003B8CB
:103410000003F80003F80007FC0007F80017F800A5
:103420001FF8001FF8001BF8000BF8000FF8000F42
:10343000F8000FF00007FC0007FC0007FC0007FC89
:10344000000FFC000FF8000FF80007F00007E00085
:1034500007E00007E00007C0000180000000000056
:1034600000000000000000000000000040000066B6
:1034700000006600003400002400002400006C00FE
:10348000006C0000FC0000DC0000D80000F8000028
:10349000F80000F80001F80001F80001F80003F856
:1034A0000003FC0003FC0003FC0003FC0007FC001D
:1034B0000FFC0007F80007F80007F80003FE000300
:1034C000FE0003FF0003FE0003FE0003FC0007FCF8
:1034D000000FFC000FF8000FF00007F00007E000FD
:1034E00007E00003C0000000000000000000000032
:1034F0000000000000000000000000007700003B1A
:1035000000001B00001200003600003600007600AC
:10351000007C00007C0000F80000F80000F80000CB
:10352000F80000FC0000FC0001FE0001FE0001FEAE
:103530000001FE0001FE0001FC0001FC0003FC0094
:1035400001FC0001FE0001FE0003FF0003FB00037D
:10355000FF0003FE0003FC000BF8000FFC000FFC53
:10356000000FF0000FF0000FE00007C000000000A7
:10357000000000000000000000000000000000004B
:103580000000000000000000000000007700003B89
:1035900000001B00001A00003600003600007C000E
:1035A000007C0000FC0000F80000F80000F80000BB
:1035B000F80000F80000FC0001FE0000FC0000FC28
:1035C0000000FE0000FE0000FC0000FC0000F8000F
:1035D00001F80001FC0001FE0001FE0003FC0003F5
:1035E000F80003F80003F80003F80003F00007E018
:1035F0000007E00007C00007C00003C00000000093
:1036000000000000000000000000000000000000BA
:10361000000000000000000000000000660000360E
:1036200000003B00001B00001B00003600003600BD
:10363000003C00003C00007C0000780000700000AE
:10364000F00000F00000F00000F00000F00000F8D2
:103650000000F80001F80001F80001FC0001FC0086
:1036600001F80001F80001F80001F80001F4000180
:10367000F40003FC0003FC0003F80003F80003F06F
:103680000003F00003F00007F00007E00003E00093
:1036900003C00003C00000000000000000000000A4
:1036A000000000000000000000000000000000001A
:1036B00000003000003800003800003800003800FA
:1036C00000380000780000780000F80000F80000E2
:1036D000F00000F00001F00001F00001F00003F044
:1036E0000003F80003F8000FFC000FFC0007F800CF
:1036F00007F80007F90007F90007F90007FB0007C2
:10370000F20007F60007F60007F40007FC0007FCCC
:103710000007FC0007FC0007FC0007EC0007F800AE
:1037200007F80003F80003F00001C00000000000EB
:103730000000000000000000000000000000001871
:103740000003180003300003300003300003300092
:1037500003300003300003300003300003B00001E9
:10376000B00001B00001F00003F00003F80003F81E
:103770000003F80007F80007FC000FF8000FF8003E
:103780000FF8000FF9000FF9000FF9000FF6000F06
:10379000FE000FFC000FFC000FFC000FF8000FF8FC
:1037A000000FF8000FF8000FF8000FFA0007FE00F6
:1037B00007FC0007F80007F8000000000000000008
:1037C00000000000000000000000000E20001CC0EF
:1037D0000039C00018C0000CC0000CC0000C600014
:1037E00006600006700007700003300003B8000395
:1037F000B80003B80003F80003F80007F80007F862
:103800000007F80007F0003FF0003FF00037F1003C
:1038100037F30037F60033FE0033FC0013F8001BCB
:10382000F0001FF0001FF0000FF0000FE0000FF09D
:10383000001FF0001FF8000FF8000FF8000FFC0049
:103840000FFC0000F000000000000000000000007D
:10385000000000000000000007E0003F80003B0087
:10386000001300000980000DC0000EC00007E0003A
:1038700007F00003F00001F80001F80001F0000378
:10388000F00003F0000FF0000FF00007E0000FC0A1
:1038900000CFC0006FC00037C00037CC003FFC0035
:1038A0001BF8001FF0000FE0000FE00007E000032E
:1038B000E00003E00003C0001FC0001FE0001FF095
:1038C000001FF0000FF0000FF00001F800003800BA
:1038D00000000000000000000000000000000000E8
:1038E000000000000000000003E0003FC0003B00BB
:1038F000003300001980000D80000CC0000EC000D5
:1039000007E00003E00003F00001F00001F0000117
:10391000F00001F00003E00007E00007E0001FC036
:10392000001FC0000FC0000FC0000FC0000FC0007C
:103930000FC0000FC0000FC0001FE0001FE0001FFD
:10394000F0000FF0000FF0000FE0000FE00007E0C4
:103950000007E00003E00003C00001C00000000019
:103960000000000000000000000000000000000057
:10397000000000000000000000600005C0000FC053
:10398000001F80001F00000F00000F00000F00004C
:103990000700000700000700000380000380000309
:1039A000C00003C00003C00003C00007C00007E060
:1039B000000FE0000FE0000FE0000FE0000FE0005C
:1039C0000FE0000FE00187E001C7E00047E000479B
:1039D000E00067E00037F0003FF0003FF0001FF02C
:1039E000001FF0000FE0000FC0000FC00007C00074
:1039F0000780000000000000000000000000000040
:103A000000000000000000000000000300000700AC
:103A1000000600000E00000C00000600000600007A
:103A20000F00000F00000F00000F000007800007CC
:103A3000800007800007C00007C00007C0000FC05B
:103A4000000FE0000FF0001FF0001FF0001FE0006B
:103A50001FF0080FF00C0FF0060FE0010FE00187D8
:103A6000E000E7F00067F0007FF0003FF0003FF07B
:103A7000001FF8003FF8003FF8003FF0001FE00093
:103A80000FC0000FC0000780000000000000000011
:103A900000000000000000000000000000003000F6
:103AA00000318000310000310000110000110000E1
:103AB0001180001980001980001DC0001DC0001D6C
:103AC000C0000DC0000DC0000DC0000CC0000EC035
:103AD000000EE0001FF0001FF0001FF0001FF000BC
:103AE0001FF0031FE0018FE0018FE000CFE0006FC7
:103AF000F0007FF0003FF0003FF0001FF0001FF0EB
:103B0000001FF0003FF8007FFC007FFC003FF80042
:103B10001FF8000FF00007E00000000000000000A8
:103B2000000000000000000000000000C000C0C055
:103B30000040C00060C00020C00020C00030C000B5
:103B400030C00030C00030C00039C00019C0001DB6
:103B5000C0001DC0001DC0001DC0001DC0001DC054
:103B6000003FF0001FE0003FE0003FE0003FE000CA
:103B70003FE0003FE0001FE0001FE0001FF0001FDB
:103B8000F0001FF0001FF0001FF0001FF0001FE00A
:103B9000001FE0007FE8007FFE003FFE001FFE00E8
:103BA0000FFC0007F80000F000000000000000001B
:103BB0000000000000000000000000C0C000C0C005
:103BC0000060400030400030C00030C00031C00014
:103BD0003180003380003300003B00003F00003F95
:103BE00080003F80001FC0003FE0003FC0001FE09A
:103BF000001FC0001FC0001FC0001FC0000FE0005A
:103C00000FE0000FE0000FE0000FE0000FE0000FFA
:103C1000E0000FE0001FC0000FC0000F80003FC099
:103C2000007FF0007FF8001FFC000FFC0006FC0086
:103C300000F0000070000020000000000000000004
:103C40000000000000000000C0C000F0C00030C054
:103C50000030C000308000318000330000370000A9
:103C60007700007E00003E00003F00003F00003F64
:103C700000003F80003FC0001FC0001FC0001FC0E9
:103C8000001FC0000FC0000FE0000FE0000FE000B9
:103C90000FE0000FE0000FC0000FC0000FC0000FCA
:103CA00080000F80001FC0003FC0003FE0001FE009
:103CB000001FE0000EF00000E000004000000000E7
:103CC00000000000000000000000000000000000F4
:103CD0000000000000000000000000C0C000E0C0C4
:103CE0000070600030400030400030C00030C00044
:103CF00031C0003180007300003300003700003F06
:103D000000003F00003F00003F80003FC0003FC078
:103D1000001FC0001FE0001FC0000FC0000FC00048
:103D20000FC0000FE0000FE0000FE0000FE0001FE9
:103D3000C0000FC0000FC0001F80003F00003F0008
:103D4000003F00003E00003E00003E00000C00006E
:103D50000000000000000000000000000000000063
:103D6000000000000000000000000000800000C013
:103D70000040600060700030700030200030600053
:103D800030600030600030C00038C00038C000191A
:103D9000C00019C0001B80001F80001F80001F8012
:103DA000001F80001FC0001FC0001FC0001FC000F8
:103DB0001FC0000FC0000FC0000FC0000FC0000FD9
:103DC000C0000FE0001FE0001FC0001FC0001F80E8
:103DD000001F80003F00003F00003F00007F000008
:103DE0007E00003E00001C000000000000000000FB
:103DF00000000000000000000000000000000000C3
:103E0000000030003038001038001838001830003A
:103E100010300010300018600018E00018C00019C1
:103E2000C0001BC0001B80001B00001F00001F8083
:103E3000001F80001FC0001FC0001F80001FC000A7
:103E40000FC0000FC0000FC0000FC0000FC0000F58
:103E5000C0001FE0001FE0001FE0001FC0001F8027
:103E6000003F80003F00007F00007F00007F0000D7
:103E70007F00007E00003C00000000000000000009
:103E80000000000000000000000000000000002012
:103E900000303000101800081C000C180008380012
:103EA00008300018600018E00019C0001B80001FD7
:103EB00000001F00001F00001F00001F00001F0067
:103EC000001FC0001FC0001FC0000FC0000FC000B7
:103ED0000FC0000FC0000FC0001FC0001FC0001F98
:103EE000C0001FE0001FE0001FC0001F80003F80D7
:103EF000003F00007F00007F00007F00007E000088
:103F00007C00003000000000000000000000000005
:103F1000000000000000000000000000F000007839
:103F200000383C000C18000430000C70000CE0005D
:103F30000DC0000DC0001F00001F00001F00001F6B
:103F400000001F00001F00001F80001FC0001FC0D6
:103F5000000FC0000FC0000FC0000FC0000FC00056
:103F60000FC0001FC0001FC0001FC0003FE0003F87
:103F7000E0003FC0003F80007F00007F0000FF00A6
:103F800000FE0000FC0000FC0000700000000000CB
:103F90000000000000000000000000000000000021
:103FA0000000000000000000000000007000007829
:103FB000003C1C000E18000430000C60000CE000F7
:103FC0001DC0001B80003F00003700003F00003F85
:103FD00000003F00003F80003F80003F80001FC086
:103FE000001FC0001FC0001FE0001FC0001FC00056
:103FF0001FC0001F40001F60003F60003FF0003FF7
:10400000E0007F80007F0000FC0000FC00007800E2
:104010000078000070000020000000000000000098
:104020000000000000000000000000000000000090
:10403000000000000000000000000000E000007030
:10404000003038000C38000C30000C20000C6000F0
:104050000CC0001CC00019C0001B80003B00003FCA
:1040600000003F00003F00003F00003F80003F8015
:10407000003FC0003FC0001F80001F80009FC000A5
:10408000DFC0007FC0003F40001F60003F30003FA6
:1040900038003F70003FF0007FC0007FC0007E000E
:1040A000007C00007C000078000078000010000018
:1040B0000000000000000000000000000000000000
:1040C000000000000000000000000000000000C030
:1040D0000030C00010C00010C00008C00008C000C0
:1040E00010C00010C00019C0001980001B80001B08
:1040F00000001B00003B00003B00003B00003B00B9
:10410000003B80003FC0003FC0003FC0003FC002F6
:104110003FC0033FC0013FC000BFC000FFC0007FE1
:1041200030003FB0003FB0003FF0007FE0007FC0B4
:10413000007FC0007F00007F00007E00007E000046
:104140003C0000080000000000000000000000002B
:10415000000000000000000000000000000000005F
:104160000003000073000063000023000023000030
:10417000230000330000330000330000330000331D
:1041800000003300003F00003F00003B00003B0008
:10419000007B00007B80007FC0007FC0007FC008E4
:1041A0003FC00C3FC0043FC0063FC0011FC0019F7D
:1041B000C000DFC000DFC0005FC0007FC0007FC064
:1041C000007FC0007FC0003F80007F80007F000034
:1041D0003F00000F00000000000000000000000091
:1041E0000000000000000000000000000000880047
:1041F000008C0000880000980000880000C80000C3
:104200004C00006C00006C00007C00007600003662
:1042100000003F00003F00003F00003F00003F0063
:10422000007F80007FC0007F80007F80007F803023
:104230003F80183FC0083FC0041FC0021FC0031FBB
:1042400080019F80009F80005FC0007FC0007FC012
:10425000007FE0007FE0003FC0001FC0007FC00083
:104260001F80000F000000000000000000000000A0
:104270000000000000000000000001C000038800F2
:1042800003B00001600001E00000B00000F0000099
:10429000F800007C00007C00003C00001E00003E96
:1042A00000003F00003F00003F00003F00007F0093
:1042B000007F00007F00007F00003F00203F803033
:1042C0003FC0081FC00C1F80061F80039F80019FF6
:1042D0008000FF80007F80003F80003FC8007FF0AB
:1042E000007FF0000FE0001FE0001FC0001F8000F3
:1042F00000000000000000000000000000000000BE
:104300000000000000000000800001C000079800CD
:1043100003700003600001E00000F00000F0000006
:104320007800007C00001C00001C00001E00001E25
:1043300000001E00003F00003F00003F00003F0063
:10434000003F00003F00003F00303F001C3FC00422
:104350001FC0031F80019F8001DF80007F80007FDE
:1043600080003F80001F80003FC8003FD8000FF052
:10437000000FE0000FC0000BC000000000000000B4
:10438000000000000000000000000000000000002D
:104390000000000000000000000000C000018800D4
:1043A00003900003F00001E00000F00000F00000C6
:1043B0007800007800007C00003C00001C00001E1B
:1043C00000001E00001E00001F00003F00003F0014
:1043D000003F00003F00003F00013F0001BF00011F
:1043E000DF0000DFC0005FC0005FC0007F80007F93
:1043F00080003F80001F80001FE0000FE00007C02A
:104400000003C00003C00003C00001C00000C000E2
:10441000000000000000000000000000000000009C
:104420000000000000000000000000400000C0008C
:1044300000C80001C80001D80000F00000D800004A
:104440006C00006C00007C00007C00003E00003F1F
:1044500000001F00001F00001F00001F00001F00C1
:10446000001F80001F80001F80001F80001F800031
:104470001F80001F80001F80000F80000FC0000FF2
:10448000C0001FC0001FC0000FC0000FC0000FC041
:10449000000FC00007C00007C00003E00003E000F9
:1044A00003C00001C0000000000000000000000088
:0444B0000000000008
:0C44B400D9CFE6FFE1CFD9FFFE0EDBCF31
:1044C000E6FFD9EC25F0E55235EC26F030EC26F08D
:1044D000000901E0FBD727EC26F000D0E552E7CF3A
:1044E000D9FF1200D9CFE6FFE1CFD9FF020EE126B6
:1044F0008280828482948290DF6A070EDF5C38E2D9
:1045000082840A0EE66E1CEC26F0E55282940A0EB6
:10451000E66E1CEC26F0E552870EE66ECBDFE55228
:10452000F3CF00F0F4CF01F0EA6ADF34FE0BEA3695
:10453000E96E600EE926000EEA2200C0EEFF01C01F
:10454000EDFF870EE66EB6DFE552F3CF00F0F4CF55
:1045500001F0EA6ADF34FE0BEA36E96E6E0EE926F8
:10456000000EEA2200C0EEFF01C0EDFFDF2AC5D732
:10457000020EE15C02E2E16AE552E16EE552E7CF4C
:10458000D9FF1200D9CFE6FFE1CFD9FFFB0EDBCF79
:1045900000F0FC0EDBCF01F0FD0EDBCF02F0FE0ED3
:1045A000DBCF03F00050025C0150035803E2F36AD2
:1045B000F46A13D0FD0EDBCF02F0FE0EDBCF03F06A
:1045C000FB0EDB50025C006EFC0EDB500358016EEC
:1045D00000C0F3FF01C0F4FF00D0E552E7CFD9FFE0
:1045E0001200D9CFE6FFE1CFD9FFD950FD0FE96E18
:1045F000FF0EDA20EA6EFF0ED880EE54000EED5466
:1046000002E2FF0E03D0FD0EDB5000D0E552E7CFF3
:10461000D9FF1200D9CFE6FFE1CFD9FF040EE12682
:10462000DF6A080EDF5C01E392D1030EDB6A020E43
:10463000DB6A030EF36E020EDBCFF4FFF350F45C83
:1046400001E383D1DE52800EDD6E010EDB5001E10D
:1046500079D1030EDB50080DF3CF00F0F4CF01F059
:10466000000E0026040E0122DF500F010024E96E27
:10467000000E0120EA6EEF68030EDB50080DF3CF49
:1046800000F0F4CF01F0C00E0026040E0122DF502E
:104690000024E96E000E0120EA6E0F0EEF6E010E8F
:1046A000DBCFE6FFFE0EDB50900DF3CF02F0F4CF30
:1046B00003F0140E0226000E0322DF50030D0250F9
:1046C000F324006E0350F420016E020EDB500F0144
:1046D0000024F66E000E0120F76E0800F550E5523A
:1046E000E71413E0030EDB50080DF3CF00F0F4CF16
:1046F00001F0C00E0026040E0122DF500F0100243D
:10470000E96E000E0120EA6EEF96010EDBCFE6FFA8
:10471000FE0EDB50900DF3CF02F0F4CF03F0140E39
:104720000226000E0322080EDF24030D0250F3249C
:10473000006E0350F420016E020EDB500F010024C6
:10474000F66E000E0120F76E0800F550E552E714F2
:1047500013E0030EDB50080DF3CF00F0F4CF01F0AF
:10476000C00E0026040E0122DF500F010024E96E66
:10477000000E0120EA6EEF90010EDBCFE6FFFE0E89
:10478000DB50900DF3CF02F0F4CF03F0140E0226AD
:10479000000E0322100EDF24030D0250F324006EDE
:1047A0000350F420016E020EDB500F010024F66E60
:1047B000000E0120F76E0800F550E552E71413E0F3
:1047C000030EDB50080DF3CF00F0F4CF01F0000E24
:1047D0000026040E0122DF500F010024E96E000EB6
:1047E0000120EA6EEF98010EDBCFE6FFFE0EDB50F4
:1047F000900DF3CF02F0F4CF03F0140E0226000E5A
:104800000322180EDF24030D0250F324006E035020
:10481000F420016E020EDB500F010024F66E000E34
:104820000120F76E0800F550E552E71413E0030E7F
:10483000DB50080DF3CF00F0F4CF01F0000E00269E
:10484000040E0122DF500F010024E96E000E01204A
:10485000EA6EEF9A010EDBCFE6FFFE0EDB50900D05
:10486000F3CF02F0F4CF03F0140E0226000E032261
:10487000200EDF24030D0250F324006E0350F420B9
:10488000016E020EDB500F010024F66E000E0120B7
:10489000F76E0800F550E552E71413E0030EDB5005
:1048A000080DF3CF00F0F4CF01F0000E0026040E47
:1048B0000122DF500F010024E96E000E0120EA6E94
:1048C000EF94010EDBCFE6FFFE0EDB50900DF3CF31
:1048D00002F0F4CF03F0140E0226000E0322280E7D
:1048E000DF24030D0250F324006E0350F420016E08
:1048F000020EDB500F010024F66E000E0120F76E51
:104900000800F550E552E71413E0030EDB50080DE4
:10491000F3CF00F0F4CF01F0000E0026040E0122C8
:10492000DF500F010024E96E000E0120EA6EEF96C1
:10493000030EDB2A010EDB407F0BE76E010EE7CF93
:10494000DBFF83D6020EDB2A74D6DF2A6AD6040E7A
:10495000E15C02E2E16AE552E16EE552E7CFD9FFA0
:104960001200D9CFE6FFE1CFD9FF020EE126C30E38
:104970008114816E0F0E8314836E010EDB6A180E94
:10498000F36E010EDBCFF4FFF350F45C2EE2010E68
:10499000DB50080DF3CF00F0F4CF01F0000E00263D
:1049A000040E0122FE0EDB500F010024E96E000E02
:1049B0000120EA6EEF50806E010EDB50080DF3CF40
:1049C00000F0F4CF01F0C00E0026040E0122FE0E0E
:1049D000DB500024E96E000E0120EA6EEF50836E7A
:1049E000F90E8316010EDB2ACAD7FE0EDB50070A2A
:1049F0002BE0010A25E0030A1FE0010A19E0070A7B
:104A000013E0010A0DE0030A07E0010A01E020D0EB
:104A1000100E8310836E1CD0200E8310836E18D06E
:104A2000400E8310836E14D0800E8310836E10D0DE
:104A3000040E8110816E0CD0080E8110816E08D09A
:104A4000100E8110816E04D0200E8110816E00D076
:104A5000020EE15C02E2E16AE552E16EE552E7CF67
:104A6000D9FF1200D9CFE6FFE1CFD9FF0E0EE12624
:104A7000050EDB6A966A956A946A936A926A836AFB
:104A8000826A816A806A846A8F0E9B6E760ED36E0C
:104A90000F0EC16E060EDB2A7A0EF36E060EDBCF0A
:104AA000F4FFF350F45C02E3060EDB6A060EDBCF84
:104AB000E6FFB0DDE552050EDB6A030EF36E050E70
:104AC000DBCFF4FFF350F45C1AE2030EDB6A080E4E
:104AD000F36E030EDBCFF4FFF350F45C0DE2030E34
:104AE000DBCFE6FF3EDFE552280EE66E0EEC26F049
:104AF000E552030EDB2AEBD7050EDB2ADED7CAD739
:104B00000E0EE15C02E2E16AE552E16EE552E7CFAA
:044B1000D9FF1200B7
:0C4B1400060EF66E000EF76E000EF86E36
:104B200000010900F550816F0900F550826F03E123
:104B3000816701D03DD00900F5507C6F0900F55028
:104B40007D6F0900F5507E6F09000900F550E96E90
:104B50000900F550EA6E090009000900F5507F6F61
:104B60000900F550806F09000900F6CF83F0F7CFF8
:104B700084F0F8CF85F07CC0F6FF7DC0F7FF7EC0E3
:104B8000F8FF00017F5302E1805307E00900F55070
:104B9000EE6E7F07F8E28007F9D783C0F6FF84C086
:104BA000F7FF85C0F8FF00018107000E825BBFD7C9
:024BB0001200F1
:0E4BB200D9CFE6FFDACFE6FFE1CFD9FFE2CFA1
:104BC000DAFFC30EC214006EFD0EDB407F0B3C0B00
:104BD0000010C26EE552E5CFDAFFE7CFD9FF120031
:104BE000000EF36E00EE00F0080E01D81200EA602D
:104BF00002D0EE6AFCD7F350E9601200EE6AFCD7EF
:104C000013EE00F023EE00F0F86A059C8AEC25F024
:0C4C100037EC26F032EC25F0FBD7120048
:044C1C00FF0EE35054
:104C2000066E1B0E00D001D0200EE76EE72EFED7D9
:084C3000062EFAD700D0120095
:084C3800FF0EE350E84E1200EC
:0E4C4000000000D000D000D0E82EFAD71200FD
:024C4E00C45050
:104C5000036E026AC3500210F36E03C0F4FF120029
:0A4C6000C250020B01E0010E120029
:044C6A00C2821200F0
:024C6E00120032
:104C70000000140028003C00500064007800780018
:0C4C8000640050003C00280014000000FC
:020000040030CA
:0100000024DB
:010001000EF0
:0100020039C4
:010003000EEE
:010005008179
:010006008178
:010008000FE8
:01000900C036
:01000A000FE6
:01000B00E014
:01000C000FE4
:01000D0040B2
:00000001FF
